:020000040800F2
:100000000050002095030008E5030008E503000800
:10001000E5030008E5030008E50300080000000010
:10002000000000000000000000000000E5030008E0
:10003000E503000800000000E5030008E5030008F0
:10004000E5030008E5030008E5030008E5030008F0
:10005000E5030008E5030008E5030008E5030008E0
:10006000E5030008E5030008E5030008E5030008D0
:10007000E5030008E5030008E5030008E5030008C0
:10008000E5030008E5030008E5030008E5030008B0
:10009000E5030008E5030008E5030008E5030008A0
:1000A000E5030008E5030008E5030008E503000890
:1000B000E5030008E5030008E5030008E503000880
:1000C000E5030008E5030008E5030008E503000870
:1000D000E5030008E5030008E5030008E503000860
:1000E000E5030008E503000800000000E503000840
:1000F000E5030008E5030008E5030008E503000840
:10010000E5030008E5030008E5030008E50300082F
:10011000E5030008E5030008E5030008E50300081F
:10012000E5030008E5030008E5030008E50300080F
:1001300010B5054C237833B9044B13B10448AFF321
:1001400000800123237010BD1C000020000000006F
:100150003004000808B5034B1BB103490348AFF353
:10016000008008BD000000002000002030040008CE
:1001700080B485B000AF78600023FB737B68002BF0
:1001800000F087807B681B78062B7FD87B685B78C4
:100190000F2B78D87B689B78002B36D17B685B78F7
:1001A000DB087B737B681B781A463E4B53F8223082
:1001B0007A7B53F822107B685B789B000F2202FA4F
:1001C00003F3DB4318467B681B781A46354B53F81C
:1001D00022307A7B014043F822107B681A797B68D1
:1001E000DB781343DBB21A467B685B7803F00703C6
:1001F0009B0002FA03F17B681B781A46294B53F8DF
:1002000022307A7B43F8221045E07B689B78012BF3
:1002100036D17B685B78DB08BB737B681B781A463A
:10022000204B53F82230BA7B53F822107B685B785E
:100230009B000F2202FA03F3DB4318467B681B780E
:100240001A46184B53F82230BA7B014043F822106B
:100250007B685B791A467B68DB789B001A437B6876
:100260005B7803F007039B0002FA03F17B681B78BD
:100270001A460C4B53F82230BA7B43F822100AE09E
:100280000323FB7307E00323FB7304E00323FB73E7
:1002900001E00223FB73FB7B18461437BD4680BC8C
:1002A000704700BF0000002080B485B000AF034657
:1002B000FB710B46BB7113467B710023FB73FB790B
:1002C000062B27D8BB790F2B21D8FB79154A52F87A
:1002D0002330DA68BB79012101FA03F3DB431846C6
:1002E000FB79104951F823300240DA60FB790D4A5E
:1002F00052F82330DA687979BB7901FA03F31846AA
:10030000FB79084951F823300243DA6004E0032303
:10031000FB7301E00323FB73FB7B18461437BD46D8
:1003200080BC70470000002080B485B000AF034659
:10033000FB710023FB73084B9B69FA79012101FAD9
:1003400002F21146044A0B439361FB7B18461437B3
:10035000BD4680BC704700BF0010024080B582B02F
:1003600000AF3B4600221A609A8001233B700423B1
:100370007B700123BB7002233B710320FFF7D4FF86
:100380003B461846FFF7F4FE002204210120FFF748
:100390008BFFFEE70D488546AFF300800C480D4902
:1003A0000D4A002302E0D458C4500433C4188C42D0
:1003B000F9D30A4A0A4C002301E013600432A24236
:1003C000FBD300F011F8FFF7C9FFFEE70050002053
:1003D000000000201C000020500400081C00002029
:1003E00038000020FEE7000070B500250C4E0D4CD3
:1003F000A41BA410A54209D100F01AF800250A4E4A
:100400000A4CA41BA410A54205D170BD56F8253096
:1004100098470135EEE756F8253098470135F2E761
:100420004804000848040008480400084C04000878
:10043000F8B500BFF8BC08BC9E467047F8B500BFD1
:08044000F8BC08BC9E467047A1
:040448005501000852
:04044C003101000872
:1004500000080140000C0140001001400014014060
:0C04600000180140001C01400020014079
:040000050800039557
:00000001FF
